{
  "_format": "hh-sol-artifact-1",
  "contractName": "NFT",
  "sourceName": "contract/NFT.sol",
  "abi": [
    {
      "inputs": [
        {
          "internalType": "string",
          "name": "_name",
          "type": "string"
        },
        {
          "internalType": "string",
          "name": "_symbol",
          "type": "string"
        },
        {
          "internalType": "uint256",
          "name": "_cost",
          "type": "uint256"
        }
      ],
      "stateMutability": "nonpayable",
      "type": "constructor"
    },
    {
      "anonymous": false,
      "inputs": [
        {
          "indexed": true,
          "internalType": "address",
          "name": "owner",
          "type": "address"
        },
        {
          "indexed": true,
          "internalType": "address",
          "name": "approved",
          "type": "address"
        },
        {
          "indexed": true,
          "internalType": "uint256",
          "name": "tokenId",
          "type": "uint256"
        }
      ],
      "name": "Approval",
      "type": "event"
    },
    {
      "anonymous": false,
      "inputs": [
        {
          "indexed": true,
          "internalType": "address",
          "name": "owner",
          "type": "address"
        },
        {
          "indexed": true,
          "internalType": "address",
          "name": "operator",
          "type": "address"
        },
        {
          "indexed": false,
          "internalType": "bool",
          "name": "approved",
          "type": "bool"
        }
      ],
      "name": "ApprovalForAll",
      "type": "event"
    },
    {
      "anonymous": false,
      "inputs": [
        {
          "indexed": false,
          "internalType": "uint256",
          "name": "_fromTokenId",
          "type": "uint256"
        },
        {
          "indexed": false,
          "internalType": "uint256",
          "name": "_toTokenId",
          "type": "uint256"
        }
      ],
      "name": "BatchMetadataUpdate",
      "type": "event"
    },
    {
      "anonymous": false,
      "inputs": [
        {
          "indexed": false,
          "internalType": "uint256",
          "name": "_tokenId",
          "type": "uint256"
        }
      ],
      "name": "MetadataUpdate",
      "type": "event"
    },
    {
      "anonymous": false,
      "inputs": [
        {
          "indexed": true,
          "internalType": "address",
          "name": "from",
          "type": "address"
        },
        {
          "indexed": true,
          "internalType": "address",
          "name": "to",
          "type": "address"
        },
        {
          "indexed": true,
          "internalType": "uint256",
          "name": "tokenId",
          "type": "uint256"
        }
      ],
      "name": "Transfer",
      "type": "event"
    },
    {
      "inputs": [
        {
          "internalType": "address",
          "name": "to",
          "type": "address"
        },
        {
          "internalType": "uint256",
          "name": "tokenId",
          "type": "uint256"
        }
      ],
      "name": "approve",
      "outputs": [],
      "stateMutability": "nonpayable",
      "type": "function"
    },
    {
      "inputs": [
        {
          "internalType": "address",
          "name": "owner",
          "type": "address"
        }
      ],
      "name": "balanceOf",
      "outputs": [
        {
          "internalType": "uint256",
          "name": "",
          "type": "uint256"
        }
      ],
      "stateMutability": "view",
      "type": "function"
    },
    {
      "inputs": [],
      "name": "cost",
      "outputs": [
        {
          "internalType": "uint256",
          "name": "",
          "type": "uint256"
        }
      ],
      "stateMutability": "view",
      "type": "function"
    },
    {
      "inputs": [
        {
          "internalType": "uint256",
          "name": "tokenId",
          "type": "uint256"
        }
      ],
      "name": "getApproved",
      "outputs": [
        {
          "internalType": "address",
          "name": "",
          "type": "address"
        }
      ],
      "stateMutability": "view",
      "type": "function"
    },
    {
      "inputs": [
        {
          "internalType": "address",
          "name": "owner",
          "type": "address"
        },
        {
          "internalType": "address",
          "name": "operator",
          "type": "address"
        }
      ],
      "name": "isApprovedForAll",
      "outputs": [
        {
          "internalType": "bool",
          "name": "",
          "type": "bool"
        }
      ],
      "stateMutability": "view",
      "type": "function"
    },
    {
      "inputs": [
        {
          "internalType": "string",
          "name": "tokenURI",
          "type": "string"
        }
      ],
      "name": "mint",
      "outputs": [],
      "stateMutability": "payable",
      "type": "function"
    },
    {
      "inputs": [],
      "name": "name",
      "outputs": [
        {
          "internalType": "string",
          "name": "",
          "type": "string"
        }
      ],
      "stateMutability": "view",
      "type": "function"
    },
    {
      "inputs": [],
      "name": "owner",
      "outputs": [
        {
          "internalType": "address",
          "name": "",
          "type": "address"
        }
      ],
      "stateMutability": "view",
      "type": "function"
    },
    {
      "inputs": [
        {
          "internalType": "uint256",
          "name": "tokenId",
          "type": "uint256"
        }
      ],
      "name": "ownerOf",
      "outputs": [
        {
          "internalType": "address",
          "name": "",
          "type": "address"
        }
      ],
      "stateMutability": "view",
      "type": "function"
    },
    {
      "inputs": [
        {
          "internalType": "address",
          "name": "from",
          "type": "address"
        },
        {
          "internalType": "address",
          "name": "to",
          "type": "address"
        },
        {
          "internalType": "uint256",
          "name": "tokenId",
          "type": "uint256"
        }
      ],
      "name": "safeTransferFrom",
      "outputs": [],
      "stateMutability": "nonpayable",
      "type": "function"
    },
    {
      "inputs": [
        {
          "internalType": "address",
          "name": "from",
          "type": "address"
        },
        {
          "internalType": "address",
          "name": "to",
          "type": "address"
        },
        {
          "internalType": "uint256",
          "name": "tokenId",
          "type": "uint256"
        },
        {
          "internalType": "bytes",
          "name": "data",
          "type": "bytes"
        }
      ],
      "name": "safeTransferFrom",
      "outputs": [],
      "stateMutability": "nonpayable",
      "type": "function"
    },
    {
      "inputs": [
        {
          "internalType": "address",
          "name": "operator",
          "type": "address"
        },
        {
          "internalType": "bool",
          "name": "approved",
          "type": "bool"
        }
      ],
      "name": "setApprovalForAll",
      "outputs": [],
      "stateMutability": "nonpayable",
      "type": "function"
    },
    {
      "inputs": [
        {
          "internalType": "bytes4",
          "name": "interfaceId",
          "type": "bytes4"
        }
      ],
      "name": "supportsInterface",
      "outputs": [
        {
          "internalType": "bool",
          "name": "",
          "type": "bool"
        }
      ],
      "stateMutability": "view",
      "type": "function"
    },
    {
      "inputs": [],
      "name": "symbol",
      "outputs": [
        {
          "internalType": "string",
          "name": "",
          "type": "string"
        }
      ],
      "stateMutability": "view",
      "type": "function"
    },
    {
      "inputs": [
        {
          "internalType": "uint256",
          "name": "tokenId",
          "type": "uint256"
        }
      ],
      "name": "tokenURI",
      "outputs": [
        {
          "internalType": "string",
          "name": "",
          "type": "string"
        }
      ],
      "stateMutability": "view",
      "type": "function"
    },
    {
      "inputs": [],
      "name": "totalSupply",
      "outputs": [
        {
          "internalType": "uint256",
          "name": "",
          "type": "uint256"
        }
      ],
      "stateMutability": "view",
      "type": "function"
    },
    {
      "inputs": [
        {
          "internalType": "address",
          "name": "from",
          "type": "address"
        },
        {
          "internalType": "address",
          "name": "to",
          "type": "address"
        },
        {
          "internalType": "uint256",
          "name": "tokenId",
          "type": "uint256"
        }
      ],
      "name": "transferFrom",
      "outputs": [],
      "stateMutability": "nonpayable",
      "type": "function"
    },
    {
      "inputs": [],
      "name": "withdraw",
      "outputs": [],
      "stateMutability": "nonpayable",
      "type": "function"
    }
  ],
  "bytecode": "0x60806040523480156200001157600080fd5b5060405162001b2038038062001b20833981016040819052620000349162000139565b828260006200004483826200023b565b5060016200005382826200023b565b5050600880546001600160a01b031916331790555060095550620003079050565b634e487b7160e01b600052604160045260246000fd5b600082601f8301126200009c57600080fd5b81516001600160401b0380821115620000b957620000b962000074565b604051601f8301601f19908116603f01168101908282118183101715620000e457620000e462000074565b816040528381526020925086838588010111156200010157600080fd5b600091505b8382101562000125578582018301518183018401529082019062000106565b600093810190920192909252949350505050565b6000806000606084860312156200014f57600080fd5b83516001600160401b03808211156200016757600080fd5b62000175878388016200008a565b945060208601519150808211156200018c57600080fd5b506200019b868287016200008a565b925050604084015190509250925092565b600181811c90821680620001c157607f821691505b602082108103620001e257634e487b7160e01b600052602260045260246000fd5b50919050565b601f8211156200023657600081815260208120601f850160051c81016020861015620002115750805b601f850160051c820191505b8181101562000232578281556001016200021d565b5050505b505050565b81516001600160401b0381111562000257576200025762000074565b6200026f81620002688454620001ac565b84620001e8565b602080601f831160018114620002a757600084156200028e5750858301515b600019600386901b1c1916600185901b17855562000232565b600085815260208120601f198616915b82811015620002d857888601518255948401946001909101908401620002b7565b5085821015620002f75787850151600019600388901b60f8161c191681555b5050505050600190811b01905550565b61180980620003176000396000f3fe6080604052600436106101095760003560e01c80636352211e11610095578063a22cb46511610064578063a22cb465146102c2578063b88d4fde146102e2578063c87b56dd14610302578063d85d3d2714610322578063e985e9c51461033557600080fd5b80636352211e1461024d57806370a082311461026d5780638da5cb5b1461028d57806395d89b41146102ad57600080fd5b806313faede6116100dc57806313faede6146101bf57806318160ddd146101e357806323b872dd146101f85780633ccfd60b1461021857806342842e0e1461022d57600080fd5b806301ffc9a71461010e57806306fdde0314610143578063081812fc14610165578063095ea7b31461019d575b600080fd5b34801561011a57600080fd5b5061012e610129366004611228565b61037e565b60405190151581526020015b60405180910390f35b34801561014f57600080fd5b506101586103a9565b60405161013a9190611295565b34801561017157600080fd5b506101856101803660046112a8565b61043b565b6040516001600160a01b03909116815260200161013a565b3480156101a957600080fd5b506101bd6101b83660046112dd565b610462565b005b3480156101cb57600080fd5b506101d560095481565b60405190815260200161013a565b3480156101ef57600080fd5b506101d561057c565b34801561020457600080fd5b506101bd610213366004611307565b61058c565b34801561022457600080fd5b506101bd6105bd565b34801561023957600080fd5b506101bd610248366004611307565b610637565b34801561025957600080fd5b506101856102683660046112a8565b610652565b34801561027957600080fd5b506101d5610288366004611343565b6106b2565b34801561029957600080fd5b50600854610185906001600160a01b031681565b3480156102b957600080fd5b50610158610738565b3480156102ce57600080fd5b506101bd6102dd36600461135e565b610747565b3480156102ee57600080fd5b506101bd6102fd366004611426565b610756565b34801561030e57600080fd5b5061015861031d3660046112a8565b61078e565b6101bd6103303660046114a2565b61089e565b34801561034157600080fd5b5061012e6103503660046114eb565b6001600160a01b03918216600090815260056020908152604080832093909416825291909152205460ff1690565b60006001600160e01b03198216632483248360e11b14806103a357506103a3826108dc565b92915050565b6060600080546103b89061151e565b80601f01602080910402602001604051908101604052809291908181526020018280546103e49061151e565b80156104315780601f1061040657610100808354040283529160200191610431565b820191906000526020600020905b81548152906001019060200180831161041457829003601f168201915b5050505050905090565b60006104468261092c565b506000908152600460205260409020546001600160a01b031690565b600061046d82610652565b9050806001600160a01b0316836001600160a01b0316036104df5760405162461bcd60e51b815260206004820152602160248201527f4552433732313a20617070726f76616c20746f2063757272656e74206f776e656044820152603960f91b60648201526084015b60405180910390fd5b336001600160a01b03821614806104fb57506104fb8133610350565b61056d5760405162461bcd60e51b815260206004820152603d60248201527f4552433732313a20617070726f76652063616c6c6572206973206e6f7420746f60448201527f6b656e206f776e6572206f7220617070726f76656420666f7220616c6c00000060648201526084016104d6565b610577838361098b565b505050565b600061058760075490565b905090565b61059633826109f9565b6105b25760405162461bcd60e51b81526004016104d690611558565b610577838383610a77565b6008546001600160a01b031633146105d457600080fd5b6008546040516000916001600160a01b03169047908381818185875af1925050503d8060008114610621576040519150601f19603f3d011682016040523d82523d6000602084013e610626565b606091505b505090508061063457600080fd5b50565b61057783838360405180602001604052806000815250610756565b6000818152600260205260408120546001600160a01b0316806103a35760405162461bcd60e51b8152602060048201526018602482015277115490cdcc8c4e881a5b9d985b1a59081d1bdad95b88125160421b60448201526064016104d6565b60006001600160a01b03821661071c5760405162461bcd60e51b815260206004820152602960248201527f4552433732313a2061646472657373207a65726f206973206e6f7420612076616044820152683634b21037bbb732b960b91b60648201526084016104d6565b506001600160a01b031660009081526003602052604090205490565b6060600180546103b89061151e565b610752338383610bdb565b5050565b61076033836109f9565b61077c5760405162461bcd60e51b81526004016104d690611558565b61078884848484610ca9565b50505050565b60606107998261092c565b600082815260066020526040812080546107b29061151e565b80601f01602080910402602001604051908101604052809291908181526020018280546107de9061151e565b801561082b5780601f106108005761010080835404028352916020019161082b565b820191906000526020600020905b81548152906001019060200180831161080e57829003601f168201915b50505050509050600061084960408051602081019091526000815290565b9050805160000361085b575092915050565b81511561088d5780826040516020016108759291906115a5565b60405160208183030381529060405292505050919050565b61089684610cdc565b949350505050565b6009543410156108ad57600080fd5b6108bb600780546001019055565b60006108c660075490565b90506108d23382610d50565b6107528183610edb565b60006001600160e01b031982166380ac58cd60e01b148061090d57506001600160e01b03198216635b5e139f60e01b145b806103a357506301ffc9a760e01b6001600160e01b03198316146103a3565b6000818152600260205260409020546001600160a01b03166106345760405162461bcd60e51b8152602060048201526018602482015277115490cdcc8c4e881a5b9d985b1a59081d1bdad95b88125160421b60448201526064016104d6565b600081815260046020526040902080546001600160a01b0319166001600160a01b03841690811790915581906109c082610652565b6001600160a01b03167f8c5be1e5ebec7d5bd14f71427d1e84f3dd0314c0f7b2291e5b200ac8c7c3b92560405160405180910390a45050565b600080610a0583610652565b9050806001600160a01b0316846001600160a01b03161480610a4c57506001600160a01b0380821660009081526005602090815260408083209388168352929052205460ff165b806108965750836001600160a01b0316610a658461043b565b6001600160a01b031614949350505050565b826001600160a01b0316610a8a82610652565b6001600160a01b031614610ab05760405162461bcd60e51b81526004016104d6906115d4565b6001600160a01b038216610b125760405162461bcd60e51b8152602060048201526024808201527f4552433732313a207472616e7366657220746f20746865207a65726f206164646044820152637265737360e01b60648201526084016104d6565b826001600160a01b0316610b2582610652565b6001600160a01b031614610b4b5760405162461bcd60e51b81526004016104d6906115d4565b600081815260046020908152604080832080546001600160a01b03199081169091556001600160a01b0387811680865260038552838620805460001901905590871680865283862080546001019055868652600290945282852080549092168417909155905184937fddf252ad1be2c89b69c2b068fc378daa952ba7f163c4a11628f55a4df523b3ef91a4505050565b816001600160a01b0316836001600160a01b031603610c3c5760405162461bcd60e51b815260206004820152601960248201527f4552433732313a20617070726f766520746f2063616c6c65720000000000000060448201526064016104d6565b6001600160a01b03838116600081815260056020908152604080832094871680845294825291829020805460ff191686151590811790915591519182527f17307eab39ab6107e8899845ad3d59bd9653f200f220920489ca2b5937696c31910160405180910390a3505050565b610cb4848484610a77565b610cc084848484610fa6565b6107885760405162461bcd60e51b81526004016104d690611619565b6060610ce78261092c565b6000610cfe60408051602081019091526000815290565b90506000815111610d1e5760405180602001604052806000815250610d49565b80610d28846110a7565b604051602001610d399291906115a5565b6040516020818303038152906040525b9392505050565b6001600160a01b038216610da65760405162461bcd60e51b815260206004820181905260248201527f4552433732313a206d696e7420746f20746865207a65726f206164647265737360448201526064016104d6565b6000818152600260205260409020546001600160a01b031615610e0b5760405162461bcd60e51b815260206004820152601c60248201527f4552433732313a20746f6b656e20616c7265616479206d696e7465640000000060448201526064016104d6565b6000818152600260205260409020546001600160a01b031615610e705760405162461bcd60e51b815260206004820152601c60248201527f4552433732313a20746f6b656e20616c7265616479206d696e7465640000000060448201526064016104d6565b6001600160a01b038216600081815260036020908152604080832080546001019055848352600290915280822080546001600160a01b0319168417905551839291907fddf252ad1be2c89b69c2b068fc378daa952ba7f163c4a11628f55a4df523b3ef908290a45050565b6000828152600260205260409020546001600160a01b0316610f565760405162461bcd60e51b815260206004820152602e60248201527f45524337323155524953746f726167653a2055524920736574206f66206e6f6e60448201526d32bc34b9ba32b73a103a37b5b2b760911b60648201526084016104d6565b6000828152600660205260409020610f6e82826116b9565b506040518281527ff8e1a15aba9398e019f0b49df1a4fde98ee17ae345cb5f6b5e2c27f5033e8ce79060200160405180910390a15050565b60006001600160a01b0384163b1561109c57604051630a85bd0160e11b81526001600160a01b0385169063150b7a0290610fea903390899088908890600401611779565b6020604051808303816000875af1925050508015611025575060408051601f3d908101601f19168201909252611022918101906117b6565b60015b611082573d808015611053576040519150601f19603f3d011682016040523d82523d6000602084013e611058565b606091505b50805160000361107a5760405162461bcd60e51b81526004016104d690611619565b805181602001fd5b6001600160e01b031916630a85bd0160e11b149050610896565b506001949350505050565b606060006110b48361113a565b600101905060008167ffffffffffffffff8111156110d4576110d461139a565b6040519080825280601f01601f1916602001820160405280156110fe576020820181803683370190505b5090508181016020015b600019016f181899199a1a9b1b9c1cb0b131b232b360811b600a86061a8153600a850494508461110857509392505050565b60008072184f03e93ff9f4daa797ed6e38ed64bf6a1f0160401b83106111795772184f03e93ff9f4daa797ed6e38ed64bf6a1f0160401b830492506040015b6d04ee2d6d415b85acef810000000083106111a5576d04ee2d6d415b85acef8100000000830492506020015b662386f26fc1000083106111c357662386f26fc10000830492506010015b6305f5e10083106111db576305f5e100830492506008015b61271083106111ef57612710830492506004015b60648310611201576064830492506002015b600a83106103a35760010192915050565b6001600160e01b03198116811461063457600080fd5b60006020828403121561123a57600080fd5b8135610d4981611212565b60005b83811015611260578181015183820152602001611248565b50506000910152565b60008151808452611281816020860160208601611245565b601f01601f19169290920160200192915050565b602081526000610d496020830184611269565b6000602082840312156112ba57600080fd5b5035919050565b80356001600160a01b03811681146112d857600080fd5b919050565b600080604083850312156112f057600080fd5b6112f9836112c1565b946020939093013593505050565b60008060006060848603121561131c57600080fd5b611325846112c1565b9250611333602085016112c1565b9150604084013590509250925092565b60006020828403121561135557600080fd5b610d49826112c1565b6000806040838503121561137157600080fd5b61137a836112c1565b91506020830135801515811461138f57600080fd5b809150509250929050565b634e487b7160e01b600052604160045260246000fd5b600067ffffffffffffffff808411156113cb576113cb61139a565b604051601f8501601f19908116603f011681019082821181831017156113f3576113f361139a565b8160405280935085815286868601111561140c57600080fd5b858560208301376000602087830101525050509392505050565b6000806000806080858703121561143c57600080fd5b611445856112c1565b9350611453602086016112c1565b925060408501359150606085013567ffffffffffffffff81111561147657600080fd5b8501601f8101871361148757600080fd5b611496878235602084016113b0565b91505092959194509250565b6000602082840312156114b457600080fd5b813567ffffffffffffffff8111156114cb57600080fd5b8201601f810184136114dc57600080fd5b610896848235602084016113b0565b600080604083850312156114fe57600080fd5b611507836112c1565b9150611515602084016112c1565b90509250929050565b600181811c9082168061153257607f821691505b60208210810361155257634e487b7160e01b600052602260045260246000fd5b50919050565b6020808252602d908201527f4552433732313a2063616c6c6572206973206e6f7420746f6b656e206f776e6560408201526c1c881bdc88185c1c1c9bdd9959609a1b606082015260800190565b600083516115b7818460208801611245565b8351908301906115cb818360208801611245565b01949350505050565b60208082526025908201527f4552433732313a207472616e736665722066726f6d20696e636f72726563742060408201526437bbb732b960d91b606082015260800190565b60208082526032908201527f4552433732313a207472616e7366657220746f206e6f6e20455243373231526560408201527131b2b4bb32b91034b6b83632b6b2b73a32b960711b606082015260800190565b601f82111561057757600081815260208120601f850160051c810160208610156116925750805b601f850160051c820191505b818110156116b15782815560010161169e565b505050505050565b815167ffffffffffffffff8111156116d3576116d361139a565b6116e7816116e1845461151e565b8461166b565b602080601f83116001811461171c57600084156117045750858301515b600019600386901b1c1916600185901b1785556116b1565b600085815260208120601f198616915b8281101561174b5788860151825594840194600190910190840161172c565b50858210156117695787850151600019600388901b60f8161c191681555b5050505050600190811b01905550565b6001600160a01b03858116825284166020820152604081018390526080606082018190526000906117ac90830184611269565b9695505050505050565b6000602082840312156117c857600080fd5b8151610d498161121256fea2646970667358221220e4d7babd6b7b9869bf2c7e057204b02672768e3351e7c00db1880028abe19db064736f6c63430008130033",
  "linkReferences": {},
  "deployedLinkReferences": {}
}